:100000000C9462000C948A000C948A000C948A0070
:100010000C948A000C948A000C948A000C948A0038
:100020000C948A000C948A000C948A000C948A0028
:100030000C948A000C948A000C948A000C948A0018
:100040000C9428060C948A000C94EE050C94B305CD
:100050000C948A000C948A000C948A000C948A00F8
:100060000C9488040C948A000000000024002700EF
:100070002A0000000000250028002B0000000007D7
:100080000002010000030406000000000000000060
:1000900000000000230026002900040404040404D6
:1000A0000404020202020202030303030303010227
:1000B00004081020408001020408102001020408F6
:1000C0001020720611241FBECFEFD8E0DEBFCDBFD7
:1000D00011E0A0E0B1E0ECE1F9E102C005900D9281
:1000E000A233B107D9F722E0A2E3B1E001C01D922B
:1000F000A43CB207E1F710E0C2E6D0E004C02197CB
:10010000FE010E94770CC136D107C9F70E94B906DB
:100110000C94E5090C94000081E480937C008091AC
:100120007A00806480937A0080917A0086FDFCCF0B
:10013000809178002091790090E0922B0895209191
:100140000D0290910C02213208F046C08091E90125
:100150008111FCCF32E03093E90131E03093E801C6
:100160003FEF3093E7011092E6012093E501ACEEFA
:10017000B1E045EC51E0FA013E2F341B321718F480
:100180003D913193F9CF1092C4012091C401990F90
:10019000922B9093C4019091C301913041F410923D
:1001A000C3019091C4019093BB0095EC01C095EE02
:1001B0009093BC009091E9019230E1F39091E701B6
:1001C0009F3F79F08091E701803241F08091E70113
:1001D000803331F084E005C081E003C082E001C0DB
:1001E00083E01092EB0110920D021092EA01089543
:1001F000E091A202F091A3020190F081E02D682F1E
:1002000082EA92E0099485ED8093BC008091BC0065
:1002100084FDFCCF1092E901089508950895E091BE
:100220007B0180917A01E81730F4F0E0E65AFE4F46
:10023000808190E008958FEF9FEF089590917B016A
:1002400080917A01981750F4E92FF0E0E65AFE4FBA
:10025000208130E09F5F90937B0102C02FEF3FEF42
:10026000C901089580917A0190E020917B01821B61
:1002700091090895CF92DF92EF92FF920F931F930F
:10028000CF93DF937C018A018091EA01882389F072
:10029000EB016B01C40ED51ECC15DD05F1F06991A3
:1002A000D701ED91FC910190F081E02DC7010995F6
:1002B000F3CF842F413288F49091E901943069F4AE
:1002C00040939E01FB012CE731E0D9019A2F921B4C
:1002D000981718F491919D93F9CFC801DF91CF91B0
:1002E0001F910F91FF90EF90DF90CF900895209194
:1002F000EA012223C9F020910D02203240F021E0D2
:1003000030E0FC013383228380E090E00895809107
:10031000EB01E82FF0E0E451FE4F60838F5F8093A4
:10032000EB0180930D0209C08091E901843029F42A
:1003300081E080939E0160937C0181E090E00895CC
:100340000F931F93CF93DF93FC01A685B7858D0193
:10035000005C1F4FE8018881998101968F7399276E
:10036000AD014E5B5F4FEA01288139818217930707
:10037000D1F3E80128813981A20FB31F6C93A685C0
:10038000B785A05CBF4F11969C938E93A689B789C1
:100390002C9181E090E0078C02C0880F991F0A948D
:1003A000E2F7822B8C9381E081A30488F589E02D0C
:1003B00080818064808381E090E0DF91CF911F9104
:1003C0000F910895FC0181A1882329F0A489B589A2
:1003D0008C9186FFFBCF11A20895FC01A485B58501
:1003E000FD01E05CFF4F2081318132968081918157
:1003F0002817390779F080819181A80FB91F8C9156
:10040000208131812F5F3F4F2F733327318320832A
:1004100090E008958FEF9FEF0895DC011C96ED9119
:10042000FC911D97DF01A05CBF4F2D913C9111976E
:1004300012968D919C9111972817390739F08D915B
:100440009C91E80FF91F808190E008958FEF9FEF56
:100450000895FC0124853585F901E05CFF4F80811A
:100460009181329620813181821B930B8F73992762
:10047000089582EA92E00C942902CF92DF92EF92E3
:10048000FF920F931F93CF93DF936C01EB017B01DE
:10049000E40EF51E00E010E0CE15DF0561F0699175
:1004A000D601ED91FC910190F081E02DC6010995F6
:1004B000080F191FF1CFC801DF91CF911F910F9144
:1004C000FF90EF90DF90CF90089590E0FC01E4580A
:1004D000FF4F3491FC01E255FF4F2491FC01E65699
:1004E000FF4FE491EE2309F43BC0332339F133305D
:1004F00091F038F43130A9F0323001F584B58F7DB8
:1005000012C0363091F03730A1F03430B9F4809118
:1005100080008F7D03C0809180008F778093800062
:100520000DC084B58F7784BD09C08091B0008F77EE
:1005300003C08091B0008F7D8093B000F0E0EE0F9B
:10054000FF1FEE58FF4FA591B4918FB7F894EC912F
:10055000611103C020952E2301C02E2B2C938FBF39
:100560000895CF93DF9390E0FC01E255FF4F249173
:10057000FC01E656FF4F8491882361F190E0880FDB
:10058000991FFC01E859FF4FC591D491FC01EE5829
:10059000FF4FA591B491611109C09FB7F89488816C
:1005A000209582238883EC912E230BC0623061F466
:1005B0009FB7F8943881822F809583238883EC91AC
:1005C0002E2B2C939FBF06C08FB7F894E8812E2B5B
:1005D00028838FBFDF91CF9108953FB7F894809122
:1005E000370190913801A0913901B0913A0126B5B7
:1005F000A89B05C02F3F19F00196A11DB11D3FBF5B
:10060000BA2FA92F982F8827820F911DA11DB11DE8
:10061000BC01CD0142E0660F771F881F991F4A95E4
:10062000D1F70895CF92DF92EF92FF92CF93DF93AD
:100630006B017C010E94ED02EB01C114D104E104C5
:10064000F10479F00E94ED026C1B7D0B683E734053
:10065000A0F381E0C81AD108E108F108C851DC4FC5
:10066000ECCFDF91CF91FF90EF90DF90CF90089586
:10067000009769F0FC0101900020E9F73197AF0184
:10068000481B590BBC0182EA92E00C943D0280E0C9
:1006900090E008958F929F92AF92BF92EF92FF9257
:1006A0000F931F93CF93DF93CDB7DEB7A1970FB60C
:1006B000F894DEBF0FBECDBF162F042F19A2423013
:1006C00008F40AE07E0121E2E20EF11C802E912C5A
:1006D000A12CB12C612FA50194010E942B0C029F2B
:1006E0001019112481E0E81AF1081A3014F4105D91
:1006F00001C0195CF7011083122F732FCA01232B3D
:10070000242B252B39F7C7010E943803A1960FB679
:10071000F894DEBF0FBECDBFDF91CF911F910F9137
:10072000FF90EF90BF90AF909F908F9008954F9261
:100730005F926F927F928F929F92AF92BF92CF9271
:10074000DF92EF92FF92CF93DF936B017C01C42F76
:100750009B01AC010E94260C882319F080E291E0F5
:1007600027C046015701E894B7F82FEF3FEF4FE756
:100770005FE7C501B4010E94260C81110DC02FEF67
:100780003FEF4FE75FE7C501B4010E94550A181615
:100790001CF484E291E00CC02FEF3FEF4FE75FE4E1
:1007A000C701B6010E94B40B181694F488E291E0D8
:1007B000DF91CF91FF90EF90DF90CF90BF90AF90FF
:1007C0009F908F907F906F905F904F900C94380324
:1007D0002FEF3FEF4FE75FECC701B6010E94550ACC
:1007E00087FDE4CF20E030E0A901C701B6010E94F7
:1007F000550A87FF09C08DE20E94F8005C01F7FAF4
:10080000F094F7F8F09402C0A12CB12CD0E060E095
:1008100070E080E09FE3DC1741F020E030E040E250
:1008200051E40E945A0ADF5FF6CF9B01AC01C70179
:10083000B6010E94E9092B013C010E94D30A6B0119
:100840007C010E94020B9B01AC01C301B2010E941A
:10085000E8092B013C014AE0C701B6010E944A03A6
:100860007C01EA0CFB1CCC2331F08CE291E00E946D
:100870003803E80EF91EDC2EDD20D1F120E030E057
:1008800040E251E4C301B2010E94B90B2B013C01CB
:100890000E94CC0A4B01770FAA08BB08B7FE13C011
:1008A0008DE20E94F800EC0188279927DC01881965
:1008B0009909AA09BB094AE0BC01CD010E944A037B
:1008C0008C0F9D1F05C04AE0C501B4010E944A0378
:1008D000E80EF91EC501B4010E94040B9B01AC0196
:1008E000C301B2010E94E8092B013C01DA94C4CF94
:1008F000C701DF91CF91FF90EF90DF90CF90BF9035
:10090000AF909F908F907F906F905F904F900895E1
:100910001F920F920FB60F9211242F933F934F9374
:100920005F936F937F938F939F93AF93BF93EF9357
:10093000FF938091B900887F803609F49CC068F5E8
:10094000883209F45BC090F4803109F454C038F463
:10095000882309F4F3C0883009F44DC0F3C088310E
:1009600009F44CC0803209F45DC0ECC0803409F455
:1009700068C048F4803309F455C0883309F0E2C0F8
:100980008093E701D5C0803509F44FC0883509F45C
:100990005DC0883409F0D6C0D3C0883909F4C4C01A
:1009A000A8F4883709F467C038F4883609F463C0BE
:1009B000803709F460C0C6C0883809F4B5C08039F2
:1009C00009F45FC0803809F0BDC05BC0803B09F40A
:1009D00083C038F4803A09F466C0883A09F47CC0D0
:1009E000B1C0803C09F4A4C0883C09F4A1C0883B94
:1009F00009F487C0A7C08091C40110C09091E6019E
:100A00008091E501981770F5E091E60181E08E0F85
:100A10008093E601F0E0EB53FE4F80818093BB00B2
:100A200085EC83C08093E7018BC0E091E60181E013
:100A30008E0F8093E6018091BB00F0E0EB53FE4FF8
:100A400080839091E6018091E5016BC0E091E60121
:100A500081E08E0F8093E6018091BB00F0E0EB53C4
:100A6000FE4F80838091E80181116AC081E080930C
:100A7000C30184EA5EC083E08093E9011092C20161
:100A8000CFCF8091C201803208F04EC0E091C20108
:100A900081E08E0F8093C2018091BB00F0E0EE55A3
:100AA000FE4F8083BDCF8091C201803230F4E0914F
:100AB000C201F0E0EE55FE4F10820E9403016091EA
:100AC000C20170E0E091A001F091A10182EA91E001
:100AD00009951092C2012CC084E08093E901109224
:100AE0009F0110929E01E0919C01F0919D0109955A
:100AF00080919E01811105C081E080939E0110923A
:100B00007C01E0919F0181E08E0F80939F01F0E0D6
:100B1000E458FE4F80818093BB0090919F018091AB
:100B20009E01981708F47CCF85E88093BC000AC02A
:100B300085EC8093BC001092E90104C01092E7019B
:100B40000E940301FF91EF91BF91AF919F918F910F
:100B50007F916F915F914F913F912F910F900FBEB9
:100B60000F901F9018951F920F920FB60F9211249D
:100B70002F933F938F939F93EF93FF9320915A026C
:100B800030915B0280915C0290915D0228173907D9
:100B900031F48091C1008F7D8093C10014C0E09139
:100BA0005C02F0915D02E65EFD4F208180915C0267
:100BB00090915D0201968F73992790935D028093C7
:100BC0005C022093C600FF91EF919F918F913F911E
:100BD0002F910F900FBE0F901F9018951F920F929C
:100BE0000FB60F9211242F934F935F938F939F9380
:100BF000EF93FF938091C00082FD1CC02091C6003E
:100C000080919E0290919F0201968F739927409147
:100C1000A0025091A1028417950771F0E0919E0205
:100C2000F0919F02E25AFD4F208390939F028093A0
:100C30009E0202C08091C600FF91EF919F918F911B
:100C40005F914F912F910F900FBE0F901F901895AD
:100C50001F920F920FB60F9211242F933F938F93F1
:100C60009F93AF93BF938091330190913401A091F2
:100C70003501B09136013091320123E0230F2D3739
:100C800020F40196A11DB11D05C026E8230F029690
:100C9000A11DB11D20933201809333019093340143
:100CA000A0933501B09336018091370190913801BE
:100CB000A0913901B0913A010196A11DB11D809317
:100CC000370190933801A0933901B0933A01BF9155
:100CD000AF919F918F913F912F910F900FBE0F90E9
:100CE0001F901895EEE0F2E01382128288EE93E0F6
:100CF000A0E0B0E084839583A683B78324E031E04D
:100D000031832083E2EAF2E01382128284839583A6
:100D1000A683B78384E191E0918380838EE592E09E
:100D2000958784878AE192E09787868785EC90E0B3
:100D3000918B808B84EC90E0938B828B80EC90E0A5
:100D4000958B848B81EC90E0978B868B82EC90E086
:100D5000918F808F86EC90E0938F828F84E0848FD8
:100D600083E0858F87E0868F85E0878F81E080A391
:100D70000895CF93DF9300D000D000D0CDB7DEB779
:100D8000789484B5826084BD84B5816084BD85B566
:100D9000826085BD85B5816085BD80916E00816072
:100DA00080936E0010928100809181008260809318
:100DB000810080918100816080938100809180001A
:100DC0008160809380008091B10084608093B10045
:100DD0008091B00081608093B00080917A0084603F
:100DE00080937A0080917A00826080937A0080916B
:100DF0007A00816080937A0080917A008068809385
:100E00007A001092C100E091B602F091B70281E041
:100E100090E09C010090C20202C0220F331F0A948E
:100E2000E2F72083E091B202F091B3021082E091E8
:100E3000B402F091B5022FEC20831092C302E0912E
:100E4000B802F091B90240819C010090BE0202C03C
:100E5000220F331F0A94E2F7242B2083E091B8027B
:100E6000F091B90240819C010090BF0202C0220FA4
:100E7000331F0A94E2F7242B2083E091B802F0910B
:100E8000B90240819C010090C00202C0220F331FB2
:100E90000A94E2F7242B2083E091B802F091B90282
:100EA00020810090C10202C0880F991F0A94E2F7C6
:100EB00080958223808368EE73E080E090E00E945A
:100EC000120310927B0110927A011092EB011092A2
:100ED0000D021092E90181E08093E8011092C301B4
:100EE00061E082E10E94650261E083E10E946502A7
:100EF0008091B9008E7F8093B9008091B9008D7F79
:100F00008093B90088E48093B80085E48093BC00A6
:100F100068EE73E080E090E00E94120361E087E0F9
:100F20000E94B10260E086E00E94B10260E081E0D0
:100F30000E94B10261E08CE00E94B10211E00FEF6B
:100F4000E2E02E2E312CF0E44F2EF2E45F2EFFE093
:100F50006F2E712C82EA92E00E942902181619065F
:100F60000CF030C282EA92E00E942902181619069B
:100F70003CF482EA92E00E94ED0180935901F2CFA5
:100F800088248394912C90925801809257018091EB
:100F900059018F3309F054C00E948C00BC01990F95
:100FA000880B990B0E94040B6093530170935401BA
:100FB000809355019093560120E030E048EC53E4D3
:100FC0000E94B40B1816E4F5309258012092570194
:100FD00061E08CE00E94650220E030E048EC53E4E0
:100FE0006091530170915401809155019091560187
:100FF0000E94B40B181604F50E948C00BC01990FD6
:10100000880B990B0E94040B609353017093540159
:10101000809355019093560142E00E9497038DE022
:101020000E94F8008AE00E94F80064EF71E080E01E
:1010300090E00E941203D0CF60E08CE00E94650235
:101040001093EA0168E2962E90920C021092EB0146
:1010500010920D0260E08EE092E00E9477018EE037
:1010600092E00E941E010E949F0064E670E080E012
:1010700090E00E9412031093EA011092EB0110928B
:101080000D028091E9018111FCCF1093E9011093C9
:10109000E8010093E7011092E60183E08093E50107
:1010A0001093C4018091C40180658093C401809134
:1010B000C301813041F41092C3018091C401809337
:1010C000BB0085EC01C085EE8093BC008091E901F6
:1010D0008130E1F38091E601843018F48091E601DB
:1010E00001C084E0A5ECB1E0EAE5F1E09E2F5AE50D
:1010F000A52E51E0B52E9A19981718F49D91919349
:10110000F5CF10927B0180937A018EE092E00E94ED
:101110001E01E82E80933F018EE092E00E941E01A6
:10112000F82E809340018EE092E00E941E015C0147
:10113000809341018EE092E00E941E01982E60E0B3
:101140008EE092E00E947701EE821D826D817E81A9
:101150006F297F7380E090E00E94020B20E030E076
:1011600048EC5BE30E94B90B6B017C0160934F017B
:10117000709350018093510190935201892D8F7388
:1011800080934201BB2436E0AA0CBB1C3A95E1F7E0
:10119000A82AB50180E090E00E94020B20E030E038
:1011A00045E25CE30E94B90B20E030E040E252E40B
:1011B0000E94E80960934B0170934C0180934D01AC
:1011C00090934E010E949F0060E087E00E946502BC
:1011D000C1010197F1F761E087E00E94650282E2B8
:1011E00090E00197F1F760E087E00E946502E4EB90
:1011F000F0E06491E0EAF0E0849190E0880F991FBC
:1012000080579F4F20E030E0A901FC01A591B491E7
:101210007C917623761318C02F5F3F4F4F4F5F4F5F
:101220002134F2E43F07FFE04F07510571F748C052
:101230002F5F3F4F4F4F5F4F213472E437077FE0FE
:101240004707510509F43CC0FC01A591B4917C917C
:1012500076237613EDCF53014201821A930AA40A32
:10126000B50A89829A82AB82BC8220E030E0A90173
:10127000FC01A591B4917C91762376130EC08980F0
:101280009A80AB80BC80281539054A055B05C1F002
:101290002F5F3F4F4F4F5F4FEBCFA5E1B0E00E9474
:1012A0006C0CDC01CB014096A11DB11DBC01CD0130
:1012B00024E096958795779567952A95D1F703C091
:1012C00060E070E0CB0160933B0170933C01809340
:1012D0003D0190933E012AE330E040E050E00E945F
:1012E0004D0CCA01B9010E94040B60934301709335
:1012F000440180934501909346010E948C00BC01FB
:10130000990F880B990B0E94040B6093470170930F
:1013100048018093490190934A0142E0C701B60118
:101320000E9497038EE291E00E94380360914B0186
:1013300070914C0180914D0190914E0142E00E94CC
:1013400097038EE291E00E9438036091470170910B
:1013500048018091490190914A0142E00E9497031F
:101360008EE291E00E943803609143017091440144
:10137000809145019091460142E00E9497038EE2E0
:1013800091E00E943803C0905701D09058010D2C75
:10139000000CEE08FF08F7FE0CC08DE20E94F8007A
:1013A00066277727CB016C197D098E099F094AE0D2
:1013B00003C04AE0C701B6010E944A0380E391E0FE
:1013C0000E9438030E943902C5CDF8940C948C0C0D
:1013D0005058BB27AA270E94000A0C947A0B0E943F
:1013E0006C0B38F00E94730B20F039F49F3F19F416
:1013F00026F40C94690B0EF4E095E7FB0C94630B58
:10140000E92F0E948B0B58F3BA1762077307840702
:10141000950720F079F4A6F50C94AD0B0EF4E09549
:101420000B2EBA2FA02D0B01B90190010C01CA019E
:10143000A0011124FF27591B99F0593F50F4503E49
:1014400068F11A16F040A22F232F342F4427585F3B
:10145000F3CF469537952795A795F0405395C9F753
:101460007EF41F16BA0B620B730B840BBAF091500B
:10147000A1F0FF0FBB1F661F771F881FC2F70EC0AA
:10148000BA0F621F731F841F48F48795779567957D
:10149000B795F7959E3F08F0B0CF9395880F08F069
:1014A0009927EE0F9795879508950E943F0B08F4B2
:1014B00081E008950E946E0A0C947A0B0E94730BCF
:1014C00058F00E946C0B40F029F45F3F29F00C9417
:1014D000630B51110C94AE0B0C94690B0E948B0B97
:1014E00068F39923B1F3552391F3951B550BBB2753
:1014F000AA2762177307840738F09F5F5F4F220F98
:10150000331F441FAA1FA9F335D00E2E3AF0E0E88E
:1015100032D091505040E695001CCAF72BD0FE2FD8
:1015200029D0660F771F881FBB1F2617370748076C
:10153000AB07B0E809F0BB0B802DBF01FF27935824
:101540005F4F3AF09E3F510578F00C94630B0C947A
:10155000AE0B5F3FE4F3983ED4F38695779567959D
:10156000B795F7959F5FC9F7880F911D9695879559
:1015700097F90895E1E0660F771F881FBB1F621778
:1015800073078407BA0720F0621B730B840BBA0B36
:10159000EE1F88F7E09508950E94D30A6894B11170
:1015A0000C94AE0B08950E94930B88F09F5798F00F
:1015B000B92F9927B751B0F0E1F0660F771F881F58
:1015C000991F1AF0BA95C9F714C0B13091F00E9472
:1015D000AD0BB1E008950C94AD0B672F782F8827E1
:1015E000B85F39F0B93FCCF3869577956795B39599
:1015F000D9F73EF490958095709561957F4F8F4F08
:101600009F4F0895E89409C097FB3EF4909580950C
:10161000709561957F4F8F4F9F4F9923A9F0F92FB8
:1016200096E9BB279395F695879577956795B79536
:10163000F111F8CFFAF4BB0F11F460FF1BC06F5F1C
:101640007F4F8F4F9F4F16C0882311F096E911C02E
:10165000772321F09EE8872F762F05C0662371F04F
:1016600096E8862F70E060E02AF09A95660F771F63
:10167000881FDAF7880F9695879597F90895990F3F
:101680000008550FAA0BE0E8FEEF16161706E8074C
:10169000F907C0F012161306E407F50798F0621B6D
:1016A000730B840B950B39F40A2661F0232B242B42
:1016B000252B21F408950A2609F4A140A6958FEF61
:1016C000811D811D089597F99F6780E870E060E0B3
:1016D00008959FEF80EC089500240A9416161706CB
:1016E00018060906089500240A9412161306140613
:1016F00005060895092E0394000C11F4882352F076
:10170000BB0F40F4BF2B11F460FF04C06F5F7F4F2D
:101710008F4F9F4F089557FD9058440F551F59F014
:101720005F3F71F04795880F97FB991F61F09F3FCE
:1017300079F087950895121613061406551FF2CFF7
:101740004695F1DF08C0161617061806991FF1CF47
:1017500086957105610508940895E894BB2766276E
:101760007727CB0197F908950E943F0B08F48FEF7C
:1017700008950E94CC0B0C947A0B0E946C0B38F0ED
:101780000E94730B20F0952311F00C94630B0C94C2
:10179000690B11240C94AE0B0E948B0B70F3959F78
:1017A000C1F3950F50E0551F629FF001729FBB2758
:1017B000F00DB11D639FAA27F00DB11DAA1F649FF4
:1017C0006627B00DA11D661F829F2227B00DA11DA7
:1017D000621F739FB00DA11D621F839FA00D611D2D
:1017E000221F749F3327A00D611D231F849F600D4E
:1017F000211D822F762F6A2F11249F5750409AF077
:10180000F1F088234AF0EE0FFF1FBB1F661F771F02
:10181000881F91505040A9F79E3F510580F00C94CD
:10182000630B0C94AE0B5F3FE4F3983ED4F38695C4
:1018300077956795B795F795E7959F5FC1F7FE2B6D
:10184000880F911D9695879597F908950E943F0BF3
:10185000880B990B0895A1E21A2EAA1BBB1BFD0150
:101860000DC0AA1FBB1FEE1FFF1FA217B307E4077F
:10187000F50720F0A21BB30BE40BF50B661F771FD7
:10188000881F991F1A9469F76095709580959095B7
:101890009B01AC01BD01CF010895052E97FB1EF4FD
:1018A00000940E94640C57FD07D00E942B0C07FC8B
:1018B00003D04EF40C94640C5095409530952195CE
:1018C0003F4F4F4F5F4F089590958095709561956C
:1018D0007F4F8F4F9F4F08950E947D0CA59F900DC5
:1018E000B49F900DA49F800D911D11240895EE0FBB
:1018F000FF1F0590F491E02D0994A29FB001B39FC2
:10190000C001A39F700D811D1124911DB29F700D08
:0C191000811D1124911D0895F894FFCF53
:10191C000000000077013A0132011E010F010E0197
:10192C0000000000A0013D022902ED010D02E201C0
:10193C006E616E00696E66006F7666002E003B006D
:02194C00210078
:00000001FF
